:020000040000FA
:04000000803115280E
:100008007E1480318B1D09280A2813280B1C0D2803
:100018000E281328833136238031132813287E10A5
:10002800090080311728F601F701F801F90120309D
:1000380084000030850020308331622380317E10B7
:10004800200080312728833109238031CD302000DA
:10005800C0000130C10083316E2380313328220073
:100068008E153628F7012000BA01BF01BE01B8017C
:10007800B9010230BB00C2004208BC00B701B6019A
:10008800B60AB401B501B201B301F601A0013E30D0
:10009800C2004208A1000030C000C10083315223D1
:1000A8008031833187238031592822000E125C2841
:1000B8008331812380318B170B1766288231AB225D
:1000C80080316628023020003C0603196C286D2810
:1000D80062286E2822008E1171282000321E752891
:1000E80076287A2822008E157E287E2822008E11F6
:1000F8007E287E28200032083304031984288528A6
:100108008A280130B2020030B33B8A28291C8D2886
:100118008E289028F6019028A91C932894289628C0
:10012800F601F60A0E1999289A28A028A001C830C5
:10013800B2000030B300A028823173228031200041
:10014800BD012908C2004208BE007708031DAD287A
:10015800AE28E32822000E1220000E18B428B52875
:10016800B828BD01BD0AB8283E083F063E05C200B2
:100178004208C300C31EC128C228C928B601B60A4E
:10018800B7018331682380316229431ECC28CD28EA
:10019800D6280330C2004208B600B701833168236D
:1001A80080316229431FD928DA286229B601B701AC
:1001B80083316823803162296229622962297703A1
:1001C800031DE728E8280B2922000E16EB2801302A
:1001D8002000B4070030B53D01303502F430031972
:1001E8003402031CF828F928FC2883315B2380316A
:1001F8008231AB22803120003C08031D04290529E7
:1002080062290230C2004208F700622962290230DE
:100218007706031D102911295E2922000E161429BC
:1002280001302000B4070030B53D01303502F4300C
:1002380003193402031C21292229252983315B2330
:1002480080318231AB22803120003C03031D2D29EF
:100258002E2962290130C2004208B707200A031973
:10026800362937293B290130C2004208A007360841
:1002780003193F2940294F2936083702031C45290D
:1002880046294A2983315B238031622983316823D7
:100298008031622962293E1F522953295729833107
:1002A80068238031622983315B2380316229622986
:1002B80062296229F70162296229622977080319EC
:1002C800662967297629B0302000C0000430C100B3
:1002D80083315223803183318723803183318423D2
:1002E8008031B32920003008310403197C297D2985
:1002F8008F290130B0020030B13B5830C0000230C5
:10030800C100833152238031833187238031833187
:1003180084238031B32920003D03031D94299529A6
:10032800A329F430C0000130C10083315223803149
:10033800833187238031833184238031B32983310A
:100348008123803100302000C000C1008331522356
:100358008031833187238031B329B329B329200021
:100368003E08C2004208BF007708C2004208BA002F
:100378003C08C2004208BB0006302000C2003030F2
:10038800890BC429C20BC429000071287128803147
:100398001528F50108307502031CD329D429D6295C
:1003A800312A312AF3017508203E860087010108A9
:1003B800F0007008F1008030F0007008F200F401DD
:1003C80008307402031CE929EA29ED291D2A1D2A8F
:1003D800ED2920008C1CF129F229ED29F329710857
:1003E80072050319F829F929FD2922008E16012A18
:1003F800012A22008E12012A012A0310F20C03108E
:10040800F30D062A20008C180A2A0B2A062A0C2A21
:100418000C0C890C0139F0007008F3040130F0006D
:100428007008F40708307402031C1B2A1C2AED29E3
:100438001D2A7308F0007508283E86008701700899
:1004480081000130F0007008F50708307502031CC0
:100458002E2A2F2AD629312A312A20000C18352A8B
:10046800362A312A372A080022008C018D018E0194
:100478000F3021008C0030308D00C7308E002300F3
:100488008E018D018C0124008D0108308C0005300F
:100498008E002100951325008C018D018E013730C7
:1004A80026008C00F0308D00FF308E003F30270092
:1004B8008C00F0308D00FF308E00131012101114D4
:1004C8008A302000C0000330C10083316E2382319E
:1004D8008B1504303D009400033095000800760821
:1004E800031D772A782A7C2A833178238231AA2A25
:1004F80077080319802A812A922A20302000C00018
:100508004E30C10083314023823188302000C00042
:100518001330C100833149238231A32A603020007F
:10052800C000EA30C1008331402382319830200076
:10053800C0003A30C100833149238231A32A833174
:100548007E23823183317B238231AA2A080020004E
:100558008C19AF2AB02AC72AF801F80A390A0319F0
:10056800B62AB72ABC2A0130C0004008B907BC2AFD
:1005780002303902031CC12AC22AC52ABC01BC0A9E
:10058800C52AB801DB2AF801380A0319CC2ACD2A72
:10059800D22A0130C0004008B807D22A05303802F4
:1005A800031CD72AD82AD92ABC01B901DB2A08009A
:1005B8003B00AC01AD017030AE00AF01B001A2014B
:1005C800A101A401A301F430A6002330A500A801CD
:1005D8000130A700AA01A9018030AB0008003B0048
:1005E8009C019D019E019F01A0019201910194012E
:1005F8009301063096003F3095009801013097002E
:100608009A01990180309B00080082313822833199
:100618008331282383318331742383318231F32258
:1006280083318231DC22833108007A087B04031984
:100638001E2B1F2B252B7B088A007A080A00833182
:10064800252B27001310080070302100990098010D
:10065800220096012F2B21001A1F332B342B2F2B0E
:10066800352B08002700131C3A2B3B2B3F2B8331DB
:10067800192383313F2B0800200041083B00A600C6
:10068800200040083B00A5000800200041083B006E
:10069800A400200040083B00A300080020004108F7
:1006A8003B009400200040083B0093000800F7013D
:1006B80064302000B0000030B10008006400800100
:1006C8000131890B632B0034F701F70A2000B401CC
:1006D800B501080020004108FB004008FA000800A6
:1006E80016302100970008003B00AB1308003B00C0
:1006F800AB1708003B00AF1708003B009B1308002E
:0E0708003B009B1708003B009F1708000800ED
:020000040001F9
:04000E0084FFFFD795
:00000001FF
